S00C000057617463682E733337F1
S113000000100020ED02000021170000211700005D
S113001021170000211700002117000021170000FC
S113002021170000211700002117000021170000EC
S113003021170000211700002117000021170000DC
S113004021170000211700002117000021170000CC
S113005021170000211700002117000021170000BC
S113006021170000211700002117000021170000AC
S1130070211700002117000021170000211700009C
S1130080211700002117000021170000211700008C
S1130090211700002117000021170000211700007C
S11300A0211700002117000021170000211700006C
S11300B0211700002117000021170000211700005C
S11300C021170000211700000348044B834202D08B
S11300D0034B03B118477047201000202010002064
S11300E0000000000548064B1B1AD90F01EBA301C1
S11300F0491002D0034B03B1184770472010002069
S1130100201000200000000010B5064C237843B9ED
S1130110FFF7DAFF044B13B10448AFF30080012367
S1130120237010BD4210002000000000101A0000CF
S113013008B5054B1BB105490548AFF30080BDE880
S11301400840FFF7CFBF00BF0000000020100020D0
S1130150101A0000A3F5803A704700BF174B002B1C
S113016008BF134B9D46FFF7F5FF00218B460F4652
S11301701348144A121A01F031FB0E4B002B00D025
S113018098470D4B002B00D0984700200021040015
S11301900D000D48002802D00C48AFF3008001F098
S11301A071FA2000290001F093FA01F059FA00BF16
S11301B00000080000000000000000000010002003
S11301C02010002044100020000000000000000067
S11301D038B500F0A3FD0E480E4C012100F000FAE2
S11301E001221146002000F023FD022501221146C0
S11301F0C4F88050002000F01BFD0122C4F8845094
S11302001146002000F014FDC4F88850002038BDC9
S113021030053E0000400E4013B5264B01225A64BF
S113022001F096F9044601A801F06AF98E2C1CD855
S11302302149D1F8B00040F00403C1F8B0301F4B9D
S11302404FF050121A601A631A66C3F89020C3F86C
S1130250C020C3F8F020C1F8B000174AD36A23F0D5
S11302607F0343F02003D36201E08F2CF5D09DF887
S11302700530012B01BF124AD2F8643143F0040364
S1130280C2F864310F4B0022C3F8B42A01F0CAF952
S113029000F026F801F064F901F0B0F901F076F904
S11302A0FFF796FF01F077FA02B0BDE8104000F0C6
S11302B00BB800BF00000E4000400E4000A00040FC
S11302C000300E400000C64308B50448012100F088
S11302D087F9BDE8084001F005BA00BF00250A000F
S11302E00148012100F07CB900250A0008B500F09E
S11302F07DF8124B12498B4212D3124B1249002043
S11303008B4218D3FFF72AFF186850F82240586828
S113031040F82240013298688242F5D30C33EAE770
S11303200022F8E71C6844F8220001325C68A2420B
S1130330F8D30833E4E70022F8E700BF181A0000F6
S1130340241A0000241A0000241A000000487047F0
S113035000F049020D4AD2F8943003F00703032B4E
S113036011D0042B03D0022B0BD1094B00E0094B15
S11303701868D2F80031C3F304230133B0FBF3F05F
S11303807047054BF4E74FF40040F2E700400E409D
S11303900C100020081000200010002008B5FFF702
S11303A0D9FF054BD3F80831C3F308230133B0FB5D
S11303B0F3F0024B186008BD00400E40041000200A
S11303C0014B1868704700BF0C100020054B1860E3
S11303D0054BD3F8943003F00703022B01D1FFF748
S11303E0DDBF70470C10002000400E400D4B0E4A3C
S11303F09A60D3F8882042F47002C3F888200B4B2B
S11304005A6D42F400525A651A6C22F003021A64BF
S11304105A6F22F001025A671A6E22F080521A664D
S1130420704700BF00ED00E00000000000300E4007
S1130430014B1868704700BF0810002008B5294810
S1130440012100F0CDF8012304220221052001F04E
S11304500FF8002000F0F6FF234B0122C3F8102808
S11304601146042000F0E4FB204800F02BFA204B56
S1130470D3F8F02042F00102C3F8F020D3F8FC20B6
S113048042F08072C3F8FC20A3F55D43194A1A6058
S113049000F5D520184B00F2FC40B0FBF3F0174BED
S11304A0013802221861C3F8F0204FF48072C3F8B7
S11304B004234FF06043124AC3F8B02F114AC3F823
S11304C0802ED3F8002E42F48072C3F8002EFF224F
S11304D083F82020D3F8002E22F48072C3F8002E73
S11304E0002008BD00250A000080144206000E000A
S11304F000ED00E0FF030040F8590D00000004E0A7
S113050055CEACC5090001000C4B984205D90C4BE3
S1130510984210D80122012301E000221346094920
S11305200B640949D1F8003123F0807343EA026374
S1130530C1F8003170470222EDE700BF0048E8012E
S11305400090D0030000C84300400E40044BD3F891
S11305504421D20703D4D3F840211042FBD1704781
S113056000400E400A4B0B4998424A680BD90A4B8B
S113057098420AD902F040724B6823F0407343EA70
S113058002634B6070470022F6E70122F4E700BFE4
S113059040787D0100000E40005A620238B5074CD5
S11305A041F67133256C2364FFF7D0FEADB2FFF73B
S11305B0D9FF0DB10023236438BD00BF00000E40F5
S11305C038B5064C256C41F671332364ADB2FFF7A0
S11305D0C9FF0DB10023236438BD00BF00000E40E5
S11305E038B5C0F30323013B092B06D8DFE803F039
S11305F00C2E0505322924051C18BDE8384017487F
S113060041F6B05101F093B8154DC0F3043405F12F
S1130610424505F5801504EBC5008000016038BD36
S1130620104DC0F30434F2E70F4DC0F304344FF41B
S11306308030FFF78BFFEAE7C0F304340B4D102042
S1130640F7E7C0F304340A4D0120F2E7094DC0F383
S11306500434DCE7084DC0F30434D8E74018000044
S113066000400E4050410E40F0400E40E8400E4025
S1130670E0400E40C0400E40B0400E4008B5C0F30C
S11306800313013B092B4CD8DFE803F0050B0F19CA
S11306904B4B1F23333F244BD3F80001C0F30420FA
S11306A008BD214BD3F81401F8E71F4BD3F80031F0
S11306B0C3F300630133012098400138F0E71A4B7B
S11306C0D3F80C01C0F30820EAE7174BD3F808016C
S11306D0F8E7164B984205D1134BD3F8203103F0B9
S11306E00F03E8E741F65471114801F020F80020A7
S11306F0D6E7104B984205D10B4BD3F8283103F0C1
S11307000303D8E741F67871EEE70B4B984205D125
S1130710054BD3F8300100F00F00C1E741F68771B3
S1130720E2E741F6AC71DFE700400E4080061600B8
S11307304018000090071A00A009140008B500F042
S11307400F00013807284BD8DFE800F00412214AD3
S113075031354A3D2B4BD3F8940000F007000328B1
S113076005D0042843D002280CBF0420052008BD6E
S1130770244BD3F8800000F007000228F7D00428A7
S113078039D0012808BF032018BF0120EFE71D4B13
S1130790D3F8843003F00703013B032B03D8DFE8CD
S11307A003F00426282A0120E1E70320DFE7154BA4
S11307B0D3F88800DFE7134B1B6F13F0010F0CBF56
S11307C007200920D3E70F4BD3F85C3103F0300343
S11307D0202B12D0302B12D0102B08BF0720D3E7C8
S11307E0094842F2013100F0A2FF0020BFE70220D5
S11307F0BDE70620BBE70A20B9E70420B7E70820D5
S1130800B5E700BF00400E404018000010B5284B6B
S1130810984204460DD1FFF791FF264BD3F884404C
S113082004F00704042C3BD8DFE804F03F2428300C
S11308302C00214B984205D1FFF780FF1D4BD3F8C4
S11308408840EDE71D4B984205D1FFF777FF194B20
S1130850D3F88040E4E741F61311194800F067FF2C
S11308602046FFF76BFF41F642110446144800F09E
S11308705EFFD7E7BDE8104000F053BFBDE810406D
S1130880FFF7D6BDBDE8104000F04EBFFFF762FD94
S1130890084BD3F80031C3F300630133D84010BDD3
S11308A0074841F6941100F042FF0020F7E700BF2B
S11308B00300200000400E400500240002001E003A
S11308C04018000038B500F47813B3F5A01F0546AE
S11308D056D020D8B3F5202F6ED00AD8B3F5003FF8
S11308E043D0B3F5802F35D0002B65D04FF4F751AA
S11308F068E0B3F5602F58D0B3F5801F00F0808016
S1130900B3F5402FF2D1FFF725FD4C4BD3F814314A
S1130910C3F3042325E0B3F5001F3BD00FD8B3F590
S1130920D01F39D0B3F5F01F25D0B3F5B01FDDD1FA
S11309304348FFF76BFF414BD3F8203126E0B3F572
S1130940481F44D0B3F5781F6ED0B3F5101FCDD136
S11309503C4811E0FFF7FEFC384BD3F80C31C3F3ED
S113096008230133B0FBF3F038BDFFF7F3FC334B3E
S1130970D3F80831F3E73248BDE83840FFF746BF03
S11309803048FFF743FF2D4BD3F8303103F00F030A
S1130990D840E9E72C48EFE72B48FFF737FF274B10
S11309A0D3F8283103F00303F2E72848FFF7C6FE23
S11309B0072825D0092803D1BDE83840FFF7CABC71
S11309C041F2D661224800F0B2FE0020CCE7214873
S11309D0FFF7B4FE0138072823D801A353F820F009
S11309E0CB090000230A0000230A0000070A0000C4
S11309F0230A0000230A0000010A00000F0A000075
S1130A00154B1868B0E7BDE83840FFF7D9BCFFF7CD
S1130A10A1FC0A4BD3F80031C3F3042303FB000009
S1130A20A2E741F20D71CDE7FFF794FC0446284696
S1130A3000F096FEB4FBF0F096E700BF00400E40D5
S1130A4002001E00050024000300200006000E0022
S1130A5040180000B800320010100020014B18802C
S1130A60704700BF16100020014B1880704700BF6C
S1130A701410002038B50C4604287BD8DFE800F0B9
S1130A806403451B3000B1F5007F04D33D4842F6B2
S1130A90B44100F04CFE3C4AC4F30804D2F8683870
S1130AA0002BFBD1394A136A23F4FF7323F00103AB
S1130AB02343136238BD7F2904D9324842F6C14129
S1130AC000F035FE304A04F07F04D2F86038002B81
S1130AD0FBD12E4A136923F07F031C431461E9E719
S1130AE07F2904D9274842F6DC4100F020FE264A3B
S1130AF004F07F04D2F86438002BFBD1234A9369B5
S1130B0023F07F031C439461D4E7204DD5F8903043
S1130B105B0704D51B4842F6EC4100F008FE6B6A03
S1130B2023F0300343F010036B62296B184BC4F3BA
S1130B30C31203320F2A03EA010328BF0F222343FF
S1130B4043EA02732B63B5E77F2904D90D4842F6C3
S1130B50075100F0ECFD4F2C0B4A28BF4F24D2F86C
S1130B607438002BFBD1094A936B23F07F03234392
S1130B7093639FE7BDE83840024842F6155100F000
S1130B80D6BD00BF401800000020C84300400E40FE
S1130B9000F8FF0F38B502280C4604D0134842F67B
S1130BA02D5100F0C4FD124D6B6A13F0300F1AD0B2
S1130BB0202C15D0302C16D0ACB10C4842F648513C
S1130BC000F0B5FD0B4BD5F8902033EA0202FAD1C0
S1130BD05B024ABFD5F8A0000120C0F3802038BDD5
S1130BE04FF40003EFE74FF44003ECE74018000034
S1130BF000400E40FF03E10708B502280CD129B1DB
S1130C00094B4FF48060C3F8A80059664AB1BDE8A7
S1130C1008400220FFF7BEBF044842F67E5100F0B0
S1130C2086FD012008BD00BF00400E4040180000B2
S1130C30F8B504281ED8324B13F800C0314B1D5CA4
S1130C40314B33F81070314B33F81040304BC1B98D
S1130C5001211C66A940D3F890000842FBD1002A68
S1130C6048D001232A4903FA0CF3D1F890201A4200
S1130C70FBD13FE0BDE8F840264842F6F93100F0E8
S1130C8056BD022837D15C6A14F0300F33D15C6A48
S1130C90E40705D55E6A26F0300646F010065E626B
S1130CA01D4C1B4B25441F66AD002B68002BFCD04C
S1130CB002B36444A4002368002BFCD0022819D199
S1130CC0C1B1134D696A11F0010116D0012220212E
S1130CD0FFF792FFD5F89C60012200210220FFF764
S1130CE0A7FFC6F30A010220FFF7C4FE2F6623689C
S1130CF0002BFCD0F8BD0021D2E7FFF74BFFE9E75A
S1130D00A5180000A0180000961800008C18000018
S1130D1000400E40401800008004F21008B50C4852
S1130D20FFF7F2FB012211460220FFF781FFFFF7D4
S1130D3035FC084B02225A67FFF70CFBFFF7E4FB74
S1130D40FFF72CFBBDE808400021FFF739BC00BFCA
S1130D500148E80100400E4010B504461120FFF799
S1130D60EDFC042804D1244842F6732100F0DFFC92
S1130D70012200210220FFF75BFF237C012B04D119
S1130D801D4842F6B02100F0D2FC1C4A217C536A73
S1130D9023F00103022908BF43F001035362184BF7
S1130DA02178C3F8A014936AE17A23F007030B4374
S1130DB09362A188637A43EAC123D362136BA07A56
S1130DC0217A03F07F630343E08843EAC02343EAC4
S1130DD0C11303310F2928BF0F2143EA01731363A1
S1130DE0A37B617B1B0143EA0133E17B0B43217B42
S1130DF043EA0143536310BD4018000000400E4015
S1130E000000C84370B505461120FFF797FC02287F
S1130E1004D10F4842F62B3100F089FC0D4E0E4CE4
S1130E20B26B6B7814402A78144344EAC324AB7839
S1130E3044EA0364EB7844EA0324B36BA34205D089
S1130E40002101220846FFF7F3FEB46370BD00BF22
S1130E504018000000400E4080E4FFF81848194B89
S1130E60C26C1B88C2F303222833013202EB8201D5
S1130E7003EB5303B3FBF1F3C16C013B072B28BF16
S1130E80072321F0EE6141EA036343F48013C36452
S1130E900D4BB3F90030002B10DB2833510801EB64
S1130EA0420203EB5303B3FBF2F3026D072B28BF9B
S1130EB0072322F0700242EA03130365704700BF60
S1130EC000300E40401000203C1000200A490379F5
S1130ED08A6922F03F021343027843EA820342788C
S1130EE043EA4203827843EAC203C278012A08BF74
S1130EF043F001038B61704700300E4010B51A4B6C
S1130F004AF6E852596B5A639A6FD407FCD41B6CA7
S1130F1013F0030306D0154A01249842C2F8B44AD8
S1130F200AD110BD18B9114BC3F8B40AF9E7012866
S1130F3002BF0F4B02221A700B4B9A6FD207FCD4DC
S1130F401A6C22F0030202431A649A6F12F001022F
S1130F50FBD10038054C18BF01200129C4F8B40A9C
S1130F6008BF5A63DDE700BF00300E400000C643EF
S1130F70431000202DE9F041A0F5E163B3F5966F2D
S1130F8007D94FF44161604800F0D1FB0020BDE86F
S1130F90F0815E4C5E4BD4F81872B0F5E16F1CD052
S1130FA0DD6CC5F301753C0E2E02C7F307474FF401
S1130FB0966C4FF4E16E01233343B3F5007F534E37
S1130FC049D017D8B3F5807F42D040F20118434589
S1130FD035D0CBB9D6F81C3218E0DD6CC5F30175F9
S1130FE0C7F307242E02FFB24FF4167C4FF4966E1B
S1130FF00023E1E7B3F5407F30D040F201384345A8
S113100023D0D6F8283201E0D6F82432C3F30726D9
S1131010DBB2A4EB0708A0EB0E0E0EFB08F8B8FB3E
S1131020FCF84744A74207D8F41A0EFB04F4B4FBB7
S1131030FCF41C44B44214D940F65E41A3E7D6F84C
S113104024321E0EC3F30743E3E7D6F82832F8E749
S1131050D6F81C32F5E7D6F82032D7E7D6F8203296
S1131060EFE772B12A4AD36DB0F5E16623F4FE438B
S113107018BF012623F0020343EA460343EA072389
S1131080D36509B9012082E7204BD3F80021D2B2FD
S1131090032A07D8B0F5E16FD3F82C320AD0C3F392
S11310A0072308E0022DD3F8303210D0032D11D0DD
S11310B0012DF4D0DBB21B0313F4702F0CD040F6D7
S11310C01621114800F033FB40F66D415BE7C3F392
S11310D00743F0E71B0EEEE70D49CA6E22F4704297
S11310E01343CB664B6E23F4FF7323F00103B0F577
S11310F0E16F18BF43F00103E72C28BFE72443EA5C
S113110044034B66BEE700BFAA1800000081E00F4D
S113111000300E4008B51B4A136FD16C11F0010F5B
S113112003F0060315D0A3B1132829D914381328C2
S11311308CBF102308231348013BC26C190322F40B
S11311407F4241EA03231343C364BDE80840FFF729
S113115085BED16C01F00101194304D109280FD9CE
S11311600A380928E4E7D26CD20702D50BB927283C
S1131170DEE7054840F6B34100F0D9FA0023DAE788
S11311800423D8E700300E40AA18000010B50C4B19
S1131190D3F88039044633B9012804D9094840F604
S11311A0D14100F0C4FA084A136F23F00703234324
S11311B01367064BBDE810401888FFF7ABBF00BFAC
S11311C00000C643AA18000000300E403E10002064
S11311D037B56F4B02229A639B6B03F00F03934264
S11311E0044608D040F6AB216A4800F0A0FA002576
S11311F0284603B030BD684BD3F81C32013300F0ED
S1131200A180664BD96B9A6B1160596C1A6C116092
S1131210D96C9A6C1160596D1A6D1160D96D9A6D03
S113122011605A6E1B6E1A602389C82B04D9594861
S113123040F6B52100F07BFAA28823899A4204D9AA
S1131240544840F6B62100F072FAB4F90C30C82BB9
S113125004DD504840F6B72100F069FA6378012BA9
S113126007D1A388C82B04D94A4840F6BB2100F013
S11312705EFAE28842F210739A4204D9454840F675
S1131280C82100F054FAE2884A2A61D9B2F5FA7FFB
S113129060D340F6C3139A428CBF4FF040524FF0D4
S11312A000523B4DB4F90C10EB6C23F0405323F087
S11312B001030029A8BF43F001031343EB64384B37
S11312C0A2881A80EB6E43F08073EB66354BD3F83B
S11312D0800900B10420FFF759FF2B6E23F0C043AF
S11312E02B66EB6C43F0060301A8EB6400F008F9ED
S11312F09DF80500012811D19DF80430022B0DD86A
S113130029490B7853B96B6C284A43F001036B6489
S11313102B6E1A40264B13432B660870254B2189EC
S11313201980254BB4F90C20A0881A80FFF7F2FE2F
S1131330A37B93B1012B1DD0164840F6C71100F0D2
S1131340F6F90DE0134840F6141100F0F0F96BE7DC
S11313500022A6E74FF08052A3E70D4B174A9A6587
S1131360012260881146FFF705FE054628B940F6BC
S1131370FF2139E7064B124AF1E7A37A094A003BF9
S113138018BF0123C2F894376078FFF7B7FD2FE741
S113139000300E40AA1800000081E00F0080E00F2A
S11313A03E1000200000C64343100020000F0EF042
S11313B0B4C0400B401000203C1000207740205760
S11313C0372110B738B5052804460D4605D80B4B10
S11313D033F81030CB40DB0704D4094840F22D41E8
S11313E000F0A5F930230C2113FB041303F18C4303
S11313F0012203F52043AA401A6038BD8E1900006B
S1131400F518000038B5052804460D4605D80B4BE1
S113141033F81030CB40DB0704D4094840F2FE31E6
S113142000F085F930230C2113FB041303F18843E6
S1131430012203F52043AA401A6038BD8E1900002A
S1131440F518000010B51F28044603D90648522198
S113145000F06DF9054AD2F8443423F00303234322
S1131460C2F8443410BD00BF4119000000A0004080
S1131470F8B5052804460D4616461F4605D81C4BEC
S113148033F81030CB40DB0704D41A484FF4B07162
S113149000F04DF926B129462046CFB1FFF792FF5F
S11314A004EB4403072D4FEA03134FF00F0112D846
S11314B0A80006FA00F281400F48184400F05CF9D5
S11314C0AEB92946204677B1BDE8F840FFF77ABFA8
S11314D0FFF798FFE4E7A5F10800800006FA00F2A0
S11314E081400648E9E7BDE8F840FFF78BBFF8BD47
S11314F08E1900004119000004A0004008A000401B
S113150010B5044618B91048572100F010F90F4AD5
S1131510D2F8E430D2F8E0109B0003F03C03C1F3AE
S113152081110B43A370D2F8E03003F03F036370E2
S1131530D2F8E830D2F8EC2003F0F003C2F303123F
S11315401343237010BD00BF9A19000000FF0FE081
S1131550024BD3F8FC00000E704700BF0081E00F7F
S11315607FB5094B6A4603F1100615461868596899
S1131570144603C40833B3422246F7D12846FFF782
S113158027FE002004B070BDE819000070B586B0D5
S1131590174B01AA03F1100615461868596814463A
S11315A003C40833B3422246F7D11B882380114B6E
S11315B0D3F8B420120316D5A3F500434FF6FF72F7
S11315C01B88934208BF4FF48D730B48ADF80A3063
S11315D0FEF7FCFE2846FFF7BFFB3220FFF744FA74
S11315E0002006B070BDD3F8B830C3F30803ECE7AD
S11315F0F81900000081E00F00F0490207B5084B1C
S113160018680190202301A88DF80430FFF7FAFB35
S11316103220FFF723FA002003B05DF804FB00BF7B
S11316200A1A000010B50C480C4C6FF00403A021FA
S113163013F0800F03F1010207D12344222A83F817
S113164000131346F4D1002010BD03F00F03043B34
S1131650034419761346EBE700ED00E000E100E0F7
S113166008B5064B044613B10021AFF30080044BC8
S11316701B6803B19847204600F05AF800000000A8
S11316803810002070B50D4D0D4C641BA4100026BD
S1131690A64209D10B4D0C4C00F0B2F8641BA41007
S11316A00026A64205D170BD55F8043B9847013683
S11316B0EEE755F8043B98470136F2E7181000208E
S11316C018100020181000201C10002070477047CC
S11316D008B500F06BF8FFF7F9FF00F074F8FFF7B6
S11316E0F6FFFAE700F011B808B5FEF7A7FEBDE86B
S11316F0084000F00CB800F006B870477047704717
S11317007047704770470F2070470E20704708B528
S1131710082000F00EF8BDE80840082000F014B8D6
S1131720FEE74FF4004070474FF47A707047FEE7CD
S1131730FEE74FF060420123D2F8001E83400B43C2
S1131740C2F8003E002070474FF060410122D1F8FA
S1131750003E824023EA0203C1F8003E00207047A5
S113176008B5FEF78BFF013008BDEFF3108072B6A9
S1131770704700B962B6704770B505460E46144608
S1131780FFF7F3FF2B685C4034405C402C60BDE8FD
S11317907040FFF7EEBF13B56846002400948DF83F
S11317A00440FFF793FB204602B010BD08B5FEF7D6
S11317B033FDFFF799FFFFF79EFFFFF79EFFBDE89C
S11317C00840FFF79BBF08B5FFF799FFFFF798FFA5
S11317D0FFF797FFBDE80840FFF794BF02440346B4
S11317E0934200D1704703F8011BF9E700000000A1
S11317F000000000000000000000000000000000E5
S1131800F8B500BFF8BC08BC9E467047F8B500BFE9
S1131810F8BC08BC9E4670470000000000000000B1
S113182000000000000000000000000000000000B4
S113183000000000000000000000000000000000A4
S1131840433A2F55736572732F53726972612F5324
S1131850696D706C696369747953747564696F2F09
S113186053444B732F6765636B6F5F73646B2F70A7
S11318706C6174666F726D2F656D6C69622F737223
S1131880632F656D5F636D752E6300000002800039
S113189008000200200000014000040001001000C4
S11318A008060200040907030105433A2F5573652E
S11318B072732F53726972612F53696D706C69630F
S11318C069747953747564696F2F53444B732F672C
S11318D065636B6F5F73646B2F706C6174666F729A
S11318E06D2F656D6C69622F7372632F656D5F6513
S11318F06D752E6300633A5C75736572735C737205
S11319006972615C73696D706C696369747973740D
S11319107564696F5C73646B735C6765636B6F5F3D
S113192073646B5C706C6174666F726D5C656D6C16
S113193069625C696E635C656D5F6770696F2E6870
S113194000433A2F55736572732F53726972612F76
S113195053696D706C696369747953747564696FE4
S11319602F53444B732F6765636B6F5F73646B2FE7
S1131970706C6174666F726D2F656D6C69622F7324
S113198072632F656D5F6770696F2E6300003F009F
S113199000F8C00F00FE0000FF00433A2F557365A6
S11319A072732F53726972612F53696D706C69631E
S11319B069747953747564696F2F53444B732F673B
S11319C065636B6F5F73646B2F706C6174666F72A9
S11319D06D2F656D6C69622F7372632F656D5F7314
S11319E0797374656D2E6300000108070F000A0007
S11319F0C8002000A000000000000000A000550165
S1131A000A200706020A040700000002070000007B
S10B1A1044E7FF7F0100000020
S10F1A18241A0000001000200800000048
S1131A24C0EA2101C0EA21010080000000F049025B
S1131A34C0EA2101FFFFFFFF31010000090100009A
S90302ED0D
